{
  "contractName": "UniqueAsset",
  "abi": [
    {
      "inputs": [],
      "stateMutability": "nonpayable",
      "type": "constructor"
    },
    {
      "anonymous": false,
      "inputs": [
        {
          "indexed": true,
          "internalType": "address",
          "name": "owner",
          "type": "address"
        },
        {
          "indexed": true,
          "internalType": "address",
          "name": "approved",
          "type": "address"
        },
        {
          "indexed": true,
          "internalType": "uint256",
          "name": "tokenId",
          "type": "uint256"
        }
      ],
      "name": "Approval",
      "type": "event"
    },
    {
      "anonymous": false,
      "inputs": [
        {
          "indexed": true,
          "internalType": "address",
          "name": "owner",
          "type": "address"
        },
        {
          "indexed": true,
          "internalType": "address",
          "name": "operator",
          "type": "address"
        },
        {
          "indexed": false,
          "internalType": "bool",
          "name": "approved",
          "type": "bool"
        }
      ],
      "name": "ApprovalForAll",
      "type": "event"
    },
    {
      "anonymous": false,
      "inputs": [
        {
          "indexed": true,
          "internalType": "address",
          "name": "from",
          "type": "address"
        },
        {
          "indexed": true,
          "internalType": "address",
          "name": "to",
          "type": "address"
        },
        {
          "indexed": true,
          "internalType": "uint256",
          "name": "tokenId",
          "type": "uint256"
        }
      ],
      "name": "Transfer",
      "type": "event"
    },
    {
      "inputs": [
        {
          "internalType": "address",
          "name": "to",
          "type": "address"
        },
        {
          "internalType": "uint256",
          "name": "tokenId",
          "type": "uint256"
        }
      ],
      "name": "approve",
      "outputs": [],
      "stateMutability": "nonpayable",
      "type": "function"
    },
    {
      "inputs": [
        {
          "internalType": "address",
          "name": "owner",
          "type": "address"
        }
      ],
      "name": "balanceOf",
      "outputs": [
        {
          "internalType": "uint256",
          "name": "",
          "type": "uint256"
        }
      ],
      "stateMutability": "view",
      "type": "function"
    },
    {
      "inputs": [
        {
          "internalType": "uint256",
          "name": "tokenId",
          "type": "uint256"
        }
      ],
      "name": "getApproved",
      "outputs": [
        {
          "internalType": "address",
          "name": "",
          "type": "address"
        }
      ],
      "stateMutability": "view",
      "type": "function"
    },
    {
      "inputs": [
        {
          "internalType": "address",
          "name": "owner",
          "type": "address"
        },
        {
          "internalType": "address",
          "name": "operator",
          "type": "address"
        }
      ],
      "name": "isApprovedForAll",
      "outputs": [
        {
          "internalType": "bool",
          "name": "",
          "type": "bool"
        }
      ],
      "stateMutability": "view",
      "type": "function"
    },
    {
      "inputs": [],
      "name": "name",
      "outputs": [
        {
          "internalType": "string",
          "name": "",
          "type": "string"
        }
      ],
      "stateMutability": "view",
      "type": "function"
    },
    {
      "inputs": [
        {
          "internalType": "uint256",
          "name": "tokenId",
          "type": "uint256"
        }
      ],
      "name": "ownerOf",
      "outputs": [
        {
          "internalType": "address",
          "name": "",
          "type": "address"
        }
      ],
      "stateMutability": "view",
      "type": "function"
    },
    {
      "inputs": [
        {
          "internalType": "address",
          "name": "from",
          "type": "address"
        },
        {
          "internalType": "address",
          "name": "to",
          "type": "address"
        },
        {
          "internalType": "uint256",
          "name": "tokenId",
          "type": "uint256"
        }
      ],
      "name": "safeTransferFrom",
      "outputs": [],
      "stateMutability": "nonpayable",
      "type": "function"
    },
    {
      "inputs": [
        {
          "internalType": "address",
          "name": "from",
          "type": "address"
        },
        {
          "internalType": "address",
          "name": "to",
          "type": "address"
        },
        {
          "internalType": "uint256",
          "name": "tokenId",
          "type": "uint256"
        },
        {
          "internalType": "bytes",
          "name": "data",
          "type": "bytes"
        }
      ],
      "name": "safeTransferFrom",
      "outputs": [],
      "stateMutability": "nonpayable",
      "type": "function"
    },
    {
      "inputs": [
        {
          "internalType": "address",
          "name": "operator",
          "type": "address"
        },
        {
          "internalType": "bool",
          "name": "approved",
          "type": "bool"
        }
      ],
      "name": "setApprovalForAll",
      "outputs": [],
      "stateMutability": "nonpayable",
      "type": "function"
    },
    {
      "inputs": [
        {
          "internalType": "bytes4",
          "name": "interfaceId",
          "type": "bytes4"
        }
      ],
      "name": "supportsInterface",
      "outputs": [
        {
          "internalType": "bool",
          "name": "",
          "type": "bool"
        }
      ],
      "stateMutability": "view",
      "type": "function"
    },
    {
      "inputs": [],
      "name": "symbol",
      "outputs": [
        {
          "internalType": "string",
          "name": "",
          "type": "string"
        }
      ],
      "stateMutability": "view",
      "type": "function"
    },
    {
      "inputs": [
        {
          "internalType": "uint256",
          "name": "tokenId",
          "type": "uint256"
        }
      ],
      "name": "tokenURI",
      "outputs": [
        {
          "internalType": "string",
          "name": "",
          "type": "string"
        }
      ],
      "stateMutability": "view",
      "type": "function"
    },
    {
      "inputs": [
        {
          "internalType": "address",
          "name": "from",
          "type": "address"
        },
        {
          "internalType": "address",
          "name": "to",
          "type": "address"
        },
        {
          "internalType": "uint256",
          "name": "tokenId",
          "type": "uint256"
        }
      ],
      "name": "transferFrom",
      "outputs": [],
      "stateMutability": "nonpayable",
      "type": "function"
    },
    {
      "inputs": [
        {
          "internalType": "address",
          "name": "recipient",
          "type": "address"
        },
        {
          "internalType": "string",
          "name": "hash",
          "type": "string"
        },
        {
          "internalType": "string",
          "name": "metadata",
          "type": "string"
        }
      ],
      "name": "awardItem",
      "outputs": [
        {
          "internalType": "uint256",
          "name": "",
          "type": "uint256"
        }
      ],
      "stateMutability": "nonpayable",
      "type": "function"
    }
  ],
  "bytecode": "0x60806040523480156200001157600080fd5b506040518060400160405280600b81526020017f556e6971756541737365740000000000000000000000000000000000000000008152506040518060400160405280600381526020017f554e41000000000000000000000000000000000000000000000000000000000081525081600090816200008f919062000324565b508060019081620000a1919062000324565b5050506200040b565b600081519050919050565b7f4e487b7100000000000000000000000000000000000000000000000000000000600052604160045260246000fd5b7f4e487b7100000000000000000000000000000000000000000000000000000000600052602260045260246000fd5b600060028204905060018216806200012c57607f821691505b602082108103620001425762000141620000e4565b5b50919050565b60008190508160005260206000209050919050565b60006020601f8301049050919050565b600082821b905092915050565b600060088302620001ac7fffffffffffffffffffffffffffffffffffffffffffffffffffffffffffffffff826200016d565b620001b886836200016d565b95508019841693508086168417925050509392505050565b6000819050919050565b6000819050919050565b600062000205620001ff620001f984620001d0565b620001da565b620001d0565b9050919050565b6000819050919050565b6200022183620001e4565b6200023962000230826200020c565b8484546200017a565b825550505050565b600090565b6200025062000241565b6200025d81848462000216565b505050565b5b8181101562000285576200027960008262000246565b60018101905062000263565b5050565b601f821115620002d4576200029e8162000148565b620002a9846200015d565b81016020851015620002b9578190505b620002d1620002c8856200015d565b83018262000262565b50505b505050565b600082821c905092915050565b6000620002f960001984600802620002d9565b1980831691505092915050565b6000620003148383620002e6565b9150826002028217905092915050565b6200032f82620000aa565b67ffffffffffffffff8111156200034b576200034a620000b5565b5b62000357825462000113565b6200036482828562000289565b600060209050601f8311600181146200039c576000841562000387578287015190505b62000393858262000306565b86555062000403565b601f198416620003ac8662000148565b60005b82811015620003d657848901518255600182019150602085019450602081019050620003af565b86831015620003f65784890151620003f2601f891682620002e6565b8355505b6001600288020188555050505b505050505050565b612cb9806200041b6000396000f3fe608060405234801561001057600080fd5b50600436106100ea5760003560e01c806370a082311161008c578063a22cb46511610066578063a22cb4651461026f578063b88d4fde1461028b578063c87b56dd146102a7578063e985e9c5146102d7576100ea565b806370a08231146101f15780638bfaf1011461022157806395d89b4114610251576100ea565b8063095ea7b3116100c8578063095ea7b31461016d57806323b872dd1461018957806342842e0e146101a55780636352211e146101c1576100ea565b806301ffc9a7146100ef57806306fdde031461011f578063081812fc1461013d575b600080fd5b61010960048036038101906101049190611acb565b610307565b6040516101169190611b13565b60405180910390f35b6101276103e9565b6040516101349190611bbe565b60405180910390f35b61015760048036038101906101529190611c16565b61047b565b6040516101649190611c84565b60405180910390f35b61018760048036038101906101829190611ccb565b6104c1565b005b6101a3600480360381019061019e9190611d0b565b6105d8565b005b6101bf60048036038101906101ba9190611d0b565b610638565b005b6101db60048036038101906101d69190611c16565b610658565b6040516101e89190611c84565b60405180910390f35b61020b60048036038101906102069190611d5e565b6106de565b6040516102189190611d9a565b60405180910390f35b61023b60048036038101906102369190611eea565b610795565b6040516102489190611d9a565b60405180910390f35b610259610841565b6040516102669190611bbe565b60405180910390f35b61028960048036038101906102849190611fa1565b6108d3565b005b6102a560048036038101906102a09190612082565b6108e9565b005b6102c160048036038101906102bc9190611c16565b61094b565b6040516102ce9190611bbe565b60405180910390f35b6102f160048036038101906102ec9190612105565b610a5d565b6040516102fe9190611b13565b60405180910390f35b60007f80ac58cd000000000000000000000000000000000000000000000000000000007bffffffffffffffffffffffffffffffffffffffffffffffffffffffff1916827bffffffffffffffffffffffffffffffffffffffffffffffffffffffff191614806103d257507f5b5e139f000000000000000000000000000000000000000000000000000000007bffffffffffffffffffffffffffffffffffffffffffffffffffffffff1916827bffffffffffffffffffffffffffffffffffffffffffffffffffffffff1916145b806103e257506103e182610af1565b5b9050919050565b6060600080546103f890612174565b80601f016020809104026020016040519081016040528092919081815260200182805461042490612174565b80156104715780601f1061044657610100808354040283529160200191610471565b820191906000526020600020905b81548152906001019060200180831161045457829003601f168201915b5050505050905090565b600061048682610b5b565b6004600083815260200190815260200160002060009054906101000a900473ffffffffffffffffffffffffffffffffffffffff169050919050565b60006104cc82610658565b90508073ffffffffffffffffffffffffffffffffffffffff168373ffffffffffffffffffffffffffffffffffffffff160361053c576040517f08c379a000000000000000000000000000000000000000000000000000000000815260040161053390612217565b60405180910390fd5b8073ffffffffffffffffffffffffffffffffffffffff1661055b610ba6565b73ffffffffffffffffffffffffffffffffffffffff16148061058a575061058981610584610ba6565b610a5d565b5b6105c9576040517f08c379a00000000000000000000000000000000000000000000000000000000081526004016105c0906122a9565b60405180910390fd5b6105d38383610bae565b505050565b6105e96105e3610ba6565b82610c67565b610628576040517f08c379a000000000000000000000000000000000000000000000000000000000815260040161061f9061233b565b60405180910390fd5b610633838383610cfc565b505050565b610653838383604051806020016040528060008152506108e9565b505050565b60008061066483610ff5565b9050600073ffffffffffffffffffffffffffffffffffffffff168173ffffffffffffffffffffffffffffffffffffffff16036106d5576040517f08c379a00000000000000000000000000000000000000000000000000000000081526004016106cc906123a7565b60405180910390fd5b80915050919050565b60008073ffffffffffffffffffffffffffffffffffffffff168273ffffffffffffffffffffffffffffffffffffffff160361074e576040517f08c379a000000000000000000000000000000000000000000000000000000000815260040161074590612439565b60405180910390fd5b600360008373ffffffffffffffffffffffffffffffffffffffff1673ffffffffffffffffffffffffffffffffffffffff168152602001908152602001600020549050919050565b600060016008846040516107a99190612495565b908152602001604051809103902060009054906101000a900460ff1660ff16036107d257600080fd5b60016008846040516107e49190612495565b908152602001604051809103902060006101000a81548160ff021916908360ff1602179055506108146007611032565b60006108206007611048565b905061082c8582611056565b6108368184611273565b809150509392505050565b60606001805461085090612174565b80601f016020809104026020016040519081016040528092919081815260200182805461087c90612174565b80156108c95780601f1061089e576101008083540402835291602001916108c9565b820191906000526020600020905b8154815290600101906020018083116108ac57829003601f168201915b5050505050905090565b6108e56108de610ba6565b83836112e0565b5050565b6108fa6108f4610ba6565b83610c67565b610939576040517f08c379a00000000000000000000000000000000000000000000000000000000081526004016109309061233b565b60405180910390fd5b6109458484848461144c565b50505050565b606061095682610b5b565b600060066000848152602001908152602001600020805461097690612174565b80601f01602080910402602001604051908101604052809291908181526020018280546109a290612174565b80156109ef5780601f106109c4576101008083540402835291602001916109ef565b820191906000526020600020905b8154815290600101906020018083116109d257829003601f168201915b505050505090506000610a006114a8565b90506000815103610a15578192505050610a58565b600082511115610a4a578082604051602001610a329291906124ac565b60405160208183030381529060405292505050610a58565b610a53846114bf565b925050505b919050565b6000600560008473ffffffffffffffffffffffffffffffffffffffff1673ffffffffffffffffffffffffffffffffffffffff16815260200190815260200160002060008373ffffffffffffffffffffffffffffffffffffffff1673ffffffffffffffffffffffffffffffffffffffff16815260200190815260200160002060009054906101000a900460ff16905092915050565b60007f01ffc9a7000000000000000000000000000000000000000000000000000000007bffffffffffffffffffffffffffffffffffffffffffffffffffffffff1916827bffffffffffffffffffffffffffffffffffffffffffffffffffffffff1916149050919050565b610b6481611527565b610ba3576040517f08c379a0000000000000000000000000000000000000000000000000000000008152600401610b9a906123a7565b60405180910390fd5b50565b600033905090565b816004600083815260200190815260200160002060006101000a81548173ffffffffffffffffffffffffffffffffffffffff021916908373ffffffffffffffffffffffffffffffffffffffff160217905550808273ffffffffffffffffffffffffffffffffffffffff16610c2183610658565b73ffffffffffffffffffffffffffffffffffffffff167f8c5be1e5ebec7d5bd14f71427d1e84f3dd0314c0f7b2291e5b200ac8c7c3b92560405160405180910390a45050565b600080610c7383610658565b90508073ffffffffffffffffffffffffffffffffffffffff168473ffffffffffffffffffffffffffffffffffffffff161480610cb55750610cb48185610a5d565b5b80610cf357508373ffffffffffffffffffffffffffffffffffffffff16610cdb8461047b565b73ffffffffffffffffffffffffffffffffffffffff16145b91505092915050565b8273ffffffffffffffffffffffffffffffffffffffff16610d1c82610658565b73ffffffffffffffffffffffffffffffffffffffff1614610d72576040517f08c379a0000000000000000000000000000000000000000000000000000000008152600401610d6990612542565b60405180910390fd5b600073ffffffffffffffffffffffffffffffffffffffff168273ffffffffffffffffffffffffffffffffffffffff1603610de1576040517f08c379a0000000000000000000000000000000000000000000000000000000008152600401610dd8906125d4565b60405180910390fd5b610dee8383836001611568565b8273ffffffffffffffffffffffffffffffffffffffff16610e0e82610658565b73ffffffffffffffffffffffffffffffffffffffff1614610e64576040517f08c379a0000000000000000000000000000000000000000000000000000000008152600401610e5b90612542565b60405180910390fd5b6004600082815260200190815260200160002060006101000a81549073ffffffffffffffffffffffffffffffffffffffff02191690556001600360008573ffffffffffffffffffffffffffffffffffffffff1673ffffffffffffffffffffffffffffffffffffffff168152602001908152602001600020600082825403925050819055506001600360008473ffffffffffffffffffffffffffffffffffffffff1673ffffffffffffffffffffffffffffffffffffffff16815260200190815260200160002060008282540192505081905550816002600083815260200190815260200160002060006101000a81548173ffffffffffffffffffffffffffffffffffffffff021916908373ffffffffffffffffffffffffffffffffffffffff160217905550808273ffffffffffffffffffffffffffffffffffffffff168473ffffffffffffffffffffffffffffffffffffffff167fddf252ad1be2c89b69c2b068fc378daa952ba7f163c4a11628f55a4df523b3ef60405160405180910390a4610ff0838383600161168e565b505050565b60006002600083815260200190815260200160002060009054906101000a900473ffffffffffffffffffffffffffffffffffffffff169050919050565b6001816000016000828254019250508190555050565b600081600001549050919050565b600073ffffffffffffffffffffffffffffffffffffffff168273ffffffffffffffffffffffffffffffffffffffff16036110c5576040517f08c379a00000000000000000000000000000000000000000000000000000000081526004016110bc90612640565b60405180910390fd5b6110ce81611527565b1561110e576040517f08c379a0000000000000000000000000000000000000000000000000000000008152600401611105906126ac565b60405180910390fd5b61111c600083836001611568565b61112581611527565b15611165576040517f08c379a000000000000000000000000000000000000000000000000000000000815260040161115c906126ac565b60405180910390fd5b6001600360008473ffffffffffffffffffffffffffffffffffffffff1673ffffffffffffffffffffffffffffffffffffffff16815260200190815260200160002060008282540192505081905550816002600083815260200190815260200160002060006101000a81548173ffffffffffffffffffffffffffffffffffffffff021916908373ffffffffffffffffffffffffffffffffffffffff160217905550808273ffffffffffffffffffffffffffffffffffffffff16600073ffffffffffffffffffffffffffffffffffffffff167fddf252ad1be2c89b69c2b068fc378daa952ba7f163c4a11628f55a4df523b3ef60405160405180910390a461126f60008383600161168e565b5050565b61127c82611527565b6112bb576040517f08c379a00000000000000000000000000000000000000000000000000000000081526004016112b29061273e565b60405180910390fd5b806006600084815260200190815260200160002090816112db919061290a565b505050565b8173ffffffffffffffffffffffffffffffffffffffff168373ffffffffffffffffffffffffffffffffffffffff160361134e576040517f08c379a000000000000000000000000000000000000000000000000000000000815260040161134590612a28565b60405180910390fd5b80600560008573ffffffffffffffffffffffffffffffffffffffff1673ffffffffffffffffffffffffffffffffffffffff16815260200190815260200160002060008473ffffffffffffffffffffffffffffffffffffffff1673ffffffffffffffffffffffffffffffffffffffff16815260200190815260200160002060006101000a81548160ff0219169083151502179055508173ffffffffffffffffffffffffffffffffffffffff168373ffffffffffffffffffffffffffffffffffffffff167f17307eab39ab6107e8899845ad3d59bd9653f200f220920489ca2b5937696c318360405161143f9190611b13565b60405180910390a3505050565b611457848484610cfc565b61146384848484611694565b6114a2576040517f08c379a000000000000000000000000000000000000000000000000000000000815260040161149990612aba565b60405180910390fd5b50505050565b606060405180602001604052806000815250905090565b60606114ca82610b5b565b60006114d46114a8565b905060008151116114f4576040518060200160405280600081525061151f565b806114fe8461181b565b60405160200161150f9291906124ac565b6040516020818303038152906040525b915050919050565b60008073ffffffffffffffffffffffffffffffffffffffff1661154983610ff5565b73ffffffffffffffffffffffffffffffffffffffff1614159050919050565b600181111561168857600073ffffffffffffffffffffffffffffffffffffffff168473ffffffffffffffffffffffffffffffffffffffff16146115fc5780600360008673ffffffffffffffffffffffffffffffffffffffff1673ffffffffffffffffffffffffffffffffffffffff16815260200190815260200160002060008282546115f49190612b09565b925050819055505b600073ffffffffffffffffffffffffffffffffffffffff168373ffffffffffffffffffffffffffffffffffffffff16146116875780600360008573ffffffffffffffffffffffffffffffffffffffff1673ffffffffffffffffffffffffffffffffffffffff168152602001908152602001600020600082825461167f9190612b3d565b925050819055505b5b50505050565b50505050565b60006116b58473ffffffffffffffffffffffffffffffffffffffff166118e9565b1561180e578373ffffffffffffffffffffffffffffffffffffffff1663150b7a026116de610ba6565b8786866040518563ffffffff1660e01b81526004016117009493929190612bc6565b6020604051808303816000875af192505050801561173c57506040513d601f19601f820116820180604052508101906117399190612c27565b60015b6117be573d806000811461176c576040519150601f19603f3d011682016040523d82523d6000602084013e611771565b606091505b5060008151036117b6576040517f08c379a00000000000000000000000000000000000000000000000000000000081526004016117ad90612aba565b60405180910390fd5b805181602001fd5b63150b7a0260e01b7bffffffffffffffffffffffffffffffffffffffffffffffffffffffff1916817bffffffffffffffffffffffffffffffffffffffffffffffffffffffff191614915050611813565b600190505b949350505050565b60606000600161182a8461190c565b01905060008167ffffffffffffffff81111561184957611848611dbf565b5b6040519080825280601f01601f19166020018201604052801561187b5781602001600182028036833780820191505090505b509050600082602001820190505b6001156118de578080600190039150507f3031323334353637383961626364656600000000000000000000000000000000600a86061a8153600a85816118d2576118d1612c54565b5b04945060008503611889575b819350505050919050565b6000808273ffffffffffffffffffffffffffffffffffffffff163b119050919050565b600080600090507a184f03e93ff9f4daa797ed6e38ed64bf6a1f010000000000000000831061196a577a184f03e93ff9f4daa797ed6e38ed64bf6a1f01000000000000000083816119605761195f612c54565b5b0492506040810190505b6d04ee2d6d415b85acef810000000083106119a7576d04ee2d6d415b85acef8100000000838161199d5761199c612c54565b5b0492506020810190505b662386f26fc1000083106119d657662386f26fc1000083816119cc576119cb612c54565b5b0492506010810190505b6305f5e10083106119ff576305f5e10083816119f5576119f4612c54565b5b0492506008810190505b6127108310611a24576127108381611a1a57611a19612c54565b5b0492506004810190505b60648310611a475760648381611a3d57611a3c612c54565b5b0492506002810190505b600a8310611a56576001810190505b80915050919050565b6000604051905090565b600080fd5b600080fd5b60007fffffffff0000000000000000000000000000000000000000000000000000000082169050919050565b611aa881611a73565b8114611ab357600080fd5b50565b600081359050611ac581611a9f565b92915050565b600060208284031215611ae157611ae0611a69565b5b6000611aef84828501611ab6565b91505092915050565b60008115159050919050565b611b0d81611af8565b82525050565b6000602082019050611b286000830184611b04565b92915050565b600081519050919050565b600082825260208201905092915050565b60005b83811015611b68578082015181840152602081019050611b4d565b60008484015250505050565b6000601f19601f8301169050919050565b6000611b9082611b2e565b611b9a8185611b39565b9350611baa818560208601611b4a565b611bb381611b74565b840191505092915050565b60006020820190508181036000830152611bd88184611b85565b905092915050565b6000819050919050565b611bf381611be0565b8114611bfe57600080fd5b50565b600081359050611c1081611bea565b92915050565b600060208284031215611c2c57611c2b611a69565b5b6000611c3a84828501611c01565b91505092915050565b600073ffffffffffffffffffffffffffffffffffffffff82169050919050565b6000611c6e82611c43565b9050919050565b611c7e81611c63565b82525050565b6000602082019050611c996000830184611c75565b92915050565b611ca881611c63565b8114611cb357600080fd5b50565b600081359050611cc581611c9f565b92915050565b60008060408385031215611ce257611ce1611a69565b5b6000611cf085828601611cb6565b9250506020611d0185828601611c01565b9150509250929050565b600080600060608486031215611d2457611d23611a69565b5b6000611d3286828701611cb6565b9350506020611d4386828701611cb6565b9250506040611d5486828701611c01565b9150509250925092565b600060208284031215611d7457611d73611a69565b5b6000611d8284828501611cb6565b91505092915050565b611d9481611be0565b82525050565b6000602082019050611daf6000830184611d8b565b92915050565b600080fd5b600080fd5b7f4e487b7100000000000000000000000000000000000000000000000000000000600052604160045260246000fd5b611df782611b74565b810181811067ffffffffffffffff82111715611e1657611e15611dbf565b5b80604052505050565b6000611e29611a5f565b9050611e358282611dee565b919050565b600067ffffffffffffffff821115611e5557611e54611dbf565b5b611e5e82611b74565b9050602081019050919050565b82818337600083830152505050565b6000611e8d611e8884611e3a565b611e1f565b905082815260208101848484011115611ea957611ea8611dba565b5b611eb4848285611e6b565b509392505050565b600082601f830112611ed157611ed0611db5565b5b8135611ee1848260208601611e7a565b91505092915050565b600080600060608486031215611f0357611f02611a69565b5b6000611f1186828701611cb6565b935050602084013567ffffffffffffffff811115611f3257611f31611a6e565b5b611f3e86828701611ebc565b925050604084013567ffffffffffffffff811115611f5f57611f5e611a6e565b5b611f6b86828701611ebc565b9150509250925092565b611f7e81611af8565b8114611f8957600080fd5b50565b600081359050611f9b81611f75565b92915050565b60008060408385031215611fb857611fb7611a69565b5b6000611fc685828601611cb6565b9250506020611fd785828601611f8c565b9150509250929050565b600067ffffffffffffffff821115611ffc57611ffb611dbf565b5b61200582611b74565b9050602081019050919050565b600061202561202084611fe1565b611e1f565b90508281526020810184848401111561204157612040611dba565b5b61204c848285611e6b565b509392505050565b600082601f83011261206957612068611db5565b5b8135612079848260208601612012565b91505092915050565b6000806000806080858703121561209c5761209b611a69565b5b60006120aa87828801611cb6565b94505060206120bb87828801611cb6565b93505060406120cc87828801611c01565b925050606085013567ffffffffffffffff8111156120ed576120ec611a6e565b5b6120f987828801612054565b91505092959194509250565b6000806040838503121561211c5761211b611a69565b5b600061212a85828601611cb6565b925050602061213b85828601611cb6565b9150509250929050565b7f4e487b7100000000000000000000000000000000000000000000000000000000600052602260045260246000fd5b6000600282049050600182168061218c57607f821691505b60208210810361219f5761219e612145565b5b50919050565b7f4552433732313a20617070726f76616c20746f2063757272656e74206f776e6560008201527f7200000000000000000000000000000000000000000000000000000000000000602082015250565b6000612201602183611b39565b915061220c826121a5565b604082019050919050565b60006020820190508181036000830152612230816121f4565b9050919050565b7f4552433732313a20617070726f76652063616c6c6572206973206e6f7420746f60008201527f6b656e206f776e6572206f7220617070726f76656420666f7220616c6c000000602082015250565b6000612293603d83611b39565b915061229e82612237565b604082019050919050565b600060208201905081810360008301526122c281612286565b9050919050565b7f4552433732313a2063616c6c6572206973206e6f7420746f6b656e206f776e6560008201527f72206f7220617070726f76656400000000000000000000000000000000000000602082015250565b6000612325602d83611b39565b9150612330826122c9565b604082019050919050565b6000602082019050818103600083015261235481612318565b9050919050565b7f4552433732313a20696e76616c696420746f6b656e2049440000000000000000600082015250565b6000612391601883611b39565b915061239c8261235b565b602082019050919050565b600060208201905081810360008301526123c081612384565b9050919050565b7f4552433732313a2061646472657373207a65726f206973206e6f74206120766160008201527f6c6964206f776e65720000000000000000000000000000000000000000000000602082015250565b6000612423602983611b39565b915061242e826123c7565b604082019050919050565b6000602082019050818103600083015261245281612416565b9050919050565b600081905092915050565b600061246f82611b2e565b6124798185612459565b9350612489818560208601611b4a565b80840191505092915050565b60006124a18284612464565b915081905092915050565b60006124b88285612464565b91506124c48284612464565b91508190509392505050565b7f4552433732313a207472616e736665722066726f6d20696e636f72726563742060008201527f6f776e6572000000000000000000000000000000000000000000000000000000602082015250565b600061252c602583611b39565b9150612537826124d0565b604082019050919050565b6000602082019050818103600083015261255b8161251f565b9050919050565b7f4552433732313a207472616e7366657220746f20746865207a65726f2061646460008201527f7265737300000000000000000000000000000000000000000000000000000000602082015250565b60006125be602483611b39565b91506125c982612562565b604082019050919050565b600060208201905081810360008301526125ed816125b1565b9050919050565b7f4552433732313a206d696e7420746f20746865207a65726f2061646472657373600082015250565b600061262a602083611b39565b9150612635826125f4565b602082019050919050565b600060208201905081810360008301526126598161261d565b9050919050565b7f4552433732313a20746f6b656e20616c7265616479206d696e74656400000000600082015250565b6000612696601c83611b39565b91506126a182612660565b602082019050919050565b600060208201905081810360008301526126c581612689565b9050919050565b7f45524337323155524953746f726167653a2055524920736574206f66206e6f6e60008201527f6578697374656e7420746f6b656e000000000000000000000000000000000000602082015250565b6000612728602e83611b39565b9150612733826126cc565b604082019050919050565b600060208201905081810360008301526127578161271b565b9050919050565b60008190508160005260206000209050919050565b60006020601f8301049050919050565b600082821b905092915050565b6000600883026127c07fffffffffffffffffffffffffffffffffffffffffffffffffffffffffffffffff82612783565b6127ca8683612783565b95508019841693508086168417925050509392505050565b6000819050919050565b60006128076128026127fd84611be0565b6127e2565b611be0565b9050919050565b6000819050919050565b612821836127ec565b61283561282d8261280e565b848454612790565b825550505050565b600090565b61284a61283d565b612855818484612818565b505050565b5b818110156128795761286e600082612842565b60018101905061285b565b5050565b601f8211156128be5761288f8161275e565b61289884612773565b810160208510156128a7578190505b6128bb6128b385612773565b83018261285a565b50505b505050565b600082821c905092915050565b60006128e1600019846008026128c3565b1980831691505092915050565b60006128fa83836128d0565b9150826002028217905092915050565b61291382611b2e565b67ffffffffffffffff81111561292c5761292b611dbf565b5b6129368254612174565b61294182828561287d565b600060209050601f8311600181146129745760008415612962578287015190505b61296c85826128ee565b8655506129d4565b601f1984166129828661275e565b60005b828110156129aa57848901518255600182019150602085019450602081019050612985565b868310156129c757848901516129c3601f8916826128d0565b8355505b6001600288020188555050505b505050505050565b7f4552433732313a20617070726f766520746f2063616c6c657200000000000000600082015250565b6000612a12601983611b39565b9150612a1d826129dc565b602082019050919050565b60006020820190508181036000830152612a4181612a05565b9050919050565b7f4552433732313a207472616e7366657220746f206e6f6e20455243373231526560008201527f63656976657220696d706c656d656e7465720000000000000000000000000000602082015250565b6000612aa4603283611b39565b9150612aaf82612a48565b604082019050919050565b60006020820190508181036000830152612ad381612a97565b9050919050565b7f4e487b7100000000000000000000000000000000000000000000000000000000600052601160045260246000fd5b6000612b1482611be0565b9150612b1f83611be0565b9250828203905081811115612b3757612b36612ada565b5b92915050565b6000612b4882611be0565b9150612b5383611be0565b9250828201905080821115612b6b57612b6a612ada565b5b92915050565b600081519050919050565b600082825260208201905092915050565b6000612b9882612b71565b612ba28185612b7c565b9350612bb2818560208601611b4a565b612bbb81611b74565b840191505092915050565b6000608082019050612bdb6000830187611c75565b612be86020830186611c75565b612bf56040830185611d8b565b8181036060830152612c078184612b8d565b905095945050505050565b600081519050612c2181611a9f565b92915050565b600060208284031215612c3d57612c3c611a69565b5b6000612c4b84828501612c12565b91505092915050565b7f4e487b7100000000000000000000000000000000000000000000000000000000600052601260045260246000fdfea2646970667358221220f608b532bf7fa846c4f2f3969f1e4921ffaadf07e50479dea3e61a229998721b64736f6c63430008110033",
  "immutableReferences": {},
  "source": "//SPDX-License-Identifier: UNLICENSED\r\npragma solidity ^0.8.17;\r\n\r\nimport \"@openzeppelin/contracts/token/ERC721/extensions/ERC721URIStorage.sol\";\r\nimport \"@openzeppelin/contracts/utils/Counters.sol\";\r\n\r\ncontract UniqueAsset is ERC721URIStorage {\r\n    using Counters for Counters.Counter;\r\n    Counters.Counter private _tokenIds;\r\n    mapping(string => uint8) hashes;\r\n\r\n    constructor() ERC721(\"UniqueAsset\", \"UNA\") {}\r\n\r\n    function awardItem(\r\n        address recipient,\r\n        string memory hash,\r\n        string memory metadata\r\n    ) public returns (uint256) {\r\n        require(hashes[hash] != 1);\r\n        hashes[hash] = 1;\r\n        _tokenIds.increment();\r\n        uint256 newItemId = _tokenIds.current();\r\n        _mint(recipient, newItemId);\r\n        _setTokenURI(newItemId, metadata);\r\n        return newItemId;\r\n    }\r\n}\r\n",
  "sourcePath": "D:\\Projects\\NFT-Maker\\contracts\\UniqueAsset.sol",
  "compiler": {
    "name": "solc",
    "version": "0.8.17+commit.8df45f5f.Emscripten.clang"
  },
  "schemaVersion": "3.4.10",
  "updatedAt": "2022-12-04T16:51:11.992Z",
  "devdoc": {
    "kind": "dev",
    "methods": {
      "approve(address,uint256)": {
        "details": "See {IERC721-approve}."
      },
      "balanceOf(address)": {
        "details": "See {IERC721-balanceOf}."
      },
      "getApproved(uint256)": {
        "details": "See {IERC721-getApproved}."
      },
      "isApprovedForAll(address,address)": {
        "details": "See {IERC721-isApprovedForAll}."
      },
      "name()": {
        "details": "See {IERC721Metadata-name}."
      },
      "ownerOf(uint256)": {
        "details": "See {IERC721-ownerOf}."
      },
      "safeTransferFrom(address,address,uint256)": {
        "details": "See {IERC721-safeTransferFrom}."
      },
      "safeTransferFrom(address,address,uint256,bytes)": {
        "details": "See {IERC721-safeTransferFrom}."
      },
      "setApprovalForAll(address,bool)": {
        "details": "See {IERC721-setApprovalForAll}."
      },
      "supportsInterface(bytes4)": {
        "details": "See {IERC165-supportsInterface}."
      },
      "symbol()": {
        "details": "See {IERC721Metadata-symbol}."
      },
      "tokenURI(uint256)": {
        "details": "See {IERC721Metadata-tokenURI}."
      },
      "transferFrom(address,address,uint256)": {
        "details": "See {IERC721-transferFrom}."
      }
    },
    "version": 1
  },
  "userdoc": {
    "kind": "user",
    "methods": {},
    "version": 1
  }
}